:100000000C9462000C9493010C946C010C948A0083
:100010000C948A000C948A000C948A000C948A0038
:100020000C948A000C948A000C948A000C948A0028
:100030000C948A000C948A000C948A000C948A0018
:100040000C9422010C948A000C948A000C948A006F
:100050000C948A000C948A000C948A000C948A00F8
:100060000C94F1050C948A00000000002400270085
:100070002A0000000000250028002B0000000000DE
:1000800023002600290004040404040404040202DA
:100090000202020203030303030301020408102007
:1000A0004080010204081020010204081020000012
:1000B0000008000201000003040700000000000027
:1000C0000000A10E11241FBECFEFD8E0DEBFCDBFD0
:1000D00011E0A0E0B1E0ECEDF2E202C005900D927B
:1000E000AC3CB107D9F722E0ACECB1E001C01D9205
:1000F000AA3DB207E1F710E0C2E6D0E004C02197C4
:10010000FE010E941E0FC136D107C9F70E944308A5
:100110000C946C110C9400008091DC01873020F469
:100120008F5F8093DC0108951092DC01089508959B
:10013000CF92DF92EF92FF920F931F93CF93DF93B3
:100140006C017A018B01C0E0D0E0CE15DF0581F0B3
:10015000D8016D918D01D601ED91FC910190F08156
:10016000E02DC6010995892B11F02196EECF7E0175
:10017000C701DF91CF911F910F91FF90EF90DF901A
:10018000CF90089521E001C0220F6A95EAF7DC01C3
:100190001C962C931C971A965C934E931997ED918D
:1001A000FC910484F585E02D60E00994DC01ED917B
:1001B000FC910684F785E02D41E0099581E090E00F
:1001C000089508950895089580E090E008950E94AC
:1001D00067110F931F93CF93DF93062F0F70423059
:1001E00019F440E0602F0EC0142FEC0170E084E0A1
:1001F000759567958A95E1F7CE010E94C105412F5B
:10020000602FCE01DF91CF911F910F910C94C1050A
:10021000FC0184858823A9F02185328521153105CB
:1002200019F4611106C007C02130310521F46111B4
:1002300002C0858701C015866585CF010E960C9496
:100240009E0508951F920F920FB60F9211242F93BF
:100250003F938F939F93AF93BF938091EF019091C2
:10026000F001A091F101B091F2013091EE0123E093
:10027000230F2D3720F40196A11DB11D05C026E8DE
:10028000230F0296A11DB11D2093EE018093EF0173
:100290009093F001A093F101B093F2018091F301EA
:1002A0009091F401A091F501B091F6010196A11D84
:1002B000B11D8093F3019093F401A093F501B093E5
:1002C000F601BF91AF919F918F913F912F910F9028
:1002D0000FBE0F901F9018951F920F920FB60F929E
:1002E00011242F933F934F935F936F937F938F933B
:1002F0009F93AF93BF93EF93FF93E0910201F0912F
:1003000003010995FF91EF91BF91AF919F918F915B
:100310007F916F915F914F913F912F910F900FBE01
:100320000F901F9018951F920F920FB60F921124E5
:100330002F933F934F935F936F937F938F939F93ED
:10034000AF93BF93EF93FF93E0910001F091010110
:100350000995FF91EF91BF91AF919F918F917F91FF
:100360006F915F914F913F912F910F900FBE0F9022
:100370001F901895DC01ED91FC910684F785E02D26
:1003800040E0099461E00E94BA018BE39FE101978C
:10039000F1F708958F929F92AF92BF92CF92DF9222
:1003A000EF92FF920F931F93CF93DF93EC014230B4
:1003B00018F08C8188608C834F836887222329F012
:1003C000413019F48C8184608C830E9412086B0187
:1003D0007C0184E6882E912CA12CB12C0E9412085D
:1003E000DC01CB018C199D09AE09BF09883E934001
:1003F000A105B10598F321E0821A9108A108B1087E
:1004000088EEC80E83E0D81EE11CF11C8114910413
:10041000A104B10419F76C8164FD31C0E881F98150
:100420000684F785E02D42E063E0CE0109958BE478
:1004300096E40197F1F7E881F9810684F785E02DCC
:1004400042E063E0CE01099503E512E0C80101979F
:10045000F1F7E881F9810684F785E02D42E063E059
:10046000CE010995C8010197F1F7E881F981068469
:10047000F785E02D42E062E0CE01099517C0606289
:10048000CE010E94BA018BE496E40197F1F76C81EA
:100490006062CE010E94BA0103E512E0C801019733
:1004A000F1F76C816062CE010E94BA01C801019728
:1004B000F1F76C816062CE010E94BA018BEE90E090
:1004C0000197F1F784E08D836CE0CE010E94BA01C0
:1004D000CE010E94C20182E08E8366E0CE010E94BE
:1004E000BA01E881F9810484F585E02D6FEFCE0132
:1004F000DF91CF911F910F91FF90EF90DF90CF9000
:10050000BF90AF909F908F900994EF92FF920F93BE
:100510001F93CF93DF93EC01062FF42EE22E8B85F1
:10052000888B1092F8011092F7011092010210923C
:1005300003021092FF0111E01093FE011092FD01E1
:1005400061E082E10E94480761E083E10E94480780
:100550008091B9008E7F8093B9008091B9008D7F22
:100560008093B90088E48093B80085E48093BC0050
:1005700082E293E09093FA018093F90183E293E0A1
:100580009093FC018093FB01888910930002809373
:10059000020210920102109203020E94420591E0B1
:1005A000811190E0998B811105C084E092E00E9456
:1005B00034038E878989882339F01F861C8260E086
:1005C000CE010E960E949E052E2D4F2D602FCE013E
:1005D000DF91CF911F910F91FF90EF900C94CA0182
:1005E00085ED8093BC008091BC0084FDFCCF10920F
:1005F000FF01089540917302262F30E0240F311D32
:1006000021323105DCF42091FF012430C9F4FC01D2
:1006100080E090E0861758F4309173022191DC015C
:10062000AD5ABD4FA30FB11D2C930196F3CF80910E
:100630007302680F6093730280E0089581E008956B
:1006400082E00895089508950895E091F801809159
:10065000F701E81730F4F0E0ED5CFD4F808190E0A9
:1006600008958FEF9FEF08959091F8018091F70121
:10067000981750F4E92FF0E0ED5CFD4F208130E059
:100680009F5F9093F80102C02FEF3FEFC9010895DB
:100690008091F70190E02091F801821B9109089563
:1006A000CF92DF92EF92FF920F931F93CF93DF933E
:1006B0007C01CB018A0120910002222389F0EB0109
:1006C0006B01C40ED51ECC15DD0569F06991D7010B
:1006D000ED91FC910190F081E02DC7010995F3CFD8
:1006E000642F0E94FA02C801DF91CF911F910F91F0
:1006F000FF90EF90DF90CF900895CF93DF931F92FC
:10070000CDB7DEB76983209100022223D1F020917A
:100710000302203240F021E030E0FC0133832283E9
:1007200080E090E015C080910102E82FF0E0E654EF
:10073000FD4F998190838F5F809301028093030224
:1007400005C061E0CE0101960E94FA0281E090E0CE
:100750000F90DF91CF910895833081F028F481309C
:1007600099F08230A1F008958730A9F08830B9F06F
:100770008430D1F4809180008F7D03C0809180000F
:100780008F7780938000089584B58F7702C084B5F9
:100790008F7D84BD08958091B0008F7703C08091D4
:1007A000B0008F7D8093B0000895009769F0FC0140
:1007B00001900020E9F73197AF01481B590BBC01AC
:1007C0008AE192E00C94980080E090E008958F9286
:1007D0009F92AF92BF920F931F93CF93DF93CDB7AA
:1007E000DEB7A1970FB6F894DEBF0FBECDBF19A23A
:1007F000423008F44AE08E010F5D1F4F842E912C89
:10080000A12CB12CA50194010E94FC0EE62FB90188
:10081000CA0101501109EA3014F4E05D01C0E95C3D
:10082000D801EC93232B242B252B61F7C8010E94C0
:10083000D503A1960FB6F894DEBF0FBECDBFDF91F2
:10084000CF911F910F91BF90AF909F908F9008957F
:100850008F929F92AF92BF92CF92DF92EF92FF92D0
:100860000F931F93CF93DF936B017C01142F9B0198
:10087000AC010E946211882319F080EC91E027C03E
:1008800046015701E894B7F82FEF3FEF4FE75FE7D6
:10089000C501B4010E94621181110DC02FEF3FEF1D
:1008A0004FE75FE7C501B4010E94910F18161CF4D1
:1008B00084EC91E00CC02FEF3FEF4FE75FE4C701FE
:1008C000B6010E94F010181684F488EC91E0DF91D4
:1008D000CF911F910F91FF90EF90DF90CF90BF903D
:1008E000AF909F908F900C94D5032FEF3FEF4FE781
:1008F0005FECC701B6010E94910F87FDE6CF20E0B3
:1009000030E0A901C701B6010E94910F87FF0BC01B
:100910006DE28AE192E00E94D600EC01F7FAF094D1
:10092000F7F8F09402C0C0E0D0E000E060E070E0D2
:1009300080E09FE3101741F020E030E040E251E416
:100940000E94960F0F5FF6CFA70196010E94250F18
:100950006B017C010E940F104B015C014AE00E9478
:10096000E703C80FD91F1123B9F1C501B4010E94D3
:100970003E109B01AC01C701B6010E94240F6B0120
:100980007C016EE28AE192E00E94D600C80FD91F76
:1009900020E030E040E251E4C701B6010E94F510CA
:1009A0004B015C010E940F106B01E12CF12C4AE01D
:1009B000C701B6010E94E703C80FD91FC701B601DE
:1009C0000E943E109B01AC01C501B4010E94240F9E
:1009D0006B017C011150E1F6CE01DF91CF911F91A7
:1009E0000F91FF90EF90DF90CF90BF90AF909F90CE
:1009F0008F9008950F931F93CF93DF93CDB7DEB7FA
:100A000028970FB6F894DEBF0FBECDBF00910E0140
:100A100010910F0120911001309111010D831E835F
:100A20002F83388700911201109113012091140136
:100A30003091150109831A832B833C839091210205
:100A4000691710F06FEF690F40912202262F30E0F6
:100A5000FE01E20FF31F403121F4943011F4618163
:100A600001C06581680F60688AE192E028960FB640
:100A7000F894DEBF0FBECDBFDF91CF911F910F91D4
:100A80000C94BA0130910302313208F04BC08091CE
:100A9000FF018111FCCF9091020222E02093FF011F
:100AA00021E02093FE012FEF2093B9021092B802AB
:100AB0003093B702EAEBF2E0A7E9B2E020E03217A8
:100AC00021F041914D932F5FFACF10929602209121
:100AD0009602990F922B909396029091FD0191307E
:100AE00061F41092FD01909196029093BB00909159
:100AF000BC0093FDF8CF95EC01C095EE9093BC003F
:100B00009091FF019230E1F39091B9029F3F79F00B
:100B10008091B902803241F08091B902803331F086
:100B200084E005C081E003C082E001C083E0109250
:100B3000010210920302109200020895FC01238129
:100B40002223B1F08181682B6083828191E09093B0
:100B5000000280930202109201021092030284E0CC
:100B600092E00E947D030E944205282F30E002C0DF
:100B700020E030E081E090E0232B11F080E090E075
:100B80000895EF92FF920F931F93CF938C01FC0176
:100B900084E0C0E060FF02C09589C92B6695815052
:100BA00031968111F7CF413011F4F8014489F801F1
:100BB0008585C82BC42B7801FEE0EF0EF11CF801EF
:100BC00062896C2BC7010E949E05F80162896095BD
:100BD0006C23C701CF911F910F91FF90EF900C9460
:100BE0009E051F920F920FB60F9211242F933F93E1
:100BF0004F935F936F937F938F939F93AF93BF9325
:100C0000EF93FF938091B900887F803609F49CC0F0
:100C100068F5883209F45BC090F4803109F454C05F
:100C200038F4882309F4F6C0883009F44DC0F6C0C2
:100C3000883109F44CC0803209F45DC0EFC08034C3
:100C400009F468C048F4803309F455C0883309F0CA
:100C5000E5C08093B902D8C0803509F44FC088350B
:100C600009F45DC0883409F0D9C0D6C0883909F4C8
:100C7000C7C0A8F4883709F467C038F4883609F487
:100C800063C0803709F460C0C9C0883809F4B8C0AF
:100C9000803909F45FC0803809F0C0C05BC0803B78
:100CA00009F486C038F4803A09F466C0883A09F439
:100CB0007FC0B4C0803C09F4A7C0883C09F4A4C03C
:100CC000883B09F48AC0AAC08091960210C0909116
:100CD000B8028091B702981770F5E091B80281E0F0
:100CE0008E0F8093B802F0E0E956FD4F808180932B
:100CF000BB0085EC86C08093B9028EC0E091B8023B
:100D000081E08E0F8093B8028091BB00F0E0E9563D
:100D1000FD4F80839091B8028091B7026EC0E09140
:100D2000B80281E08E0F8093B8028091BB00F0E0A2
:100D3000E956FD4F80838091FE0181116DC081E0F5
:100D40008093FD0184EA61C083E08093FF011092EB
:100D50009502CFCF80919502803208F051C0E0918A
:100D6000950281E08E0F809395028091BB00F0E0A8
:100D7000EB58FD4F8083BDCF85EC8093BC00109273
:100D8000FF0180919502803230F4E0919502F0E00D
:100D9000EB58FD4F10826091950270E0E091FB01ED
:100DA000F091FC0185E792E009951092950236C01A
:100DB00084E08093FF011092740210927302E0911C
:100DC000F901F091FA01099580917302811105C032
:100DD00081E08093730210925302E091740281E0EB
:100DE0008E0F80937402F0E0ED5AFD4F8081809366
:100DF000BB009091740280917302981708F479CF28
:100E000085E88093BC000AC085EC8093BC001092FA
:100E1000FF0104C01092B9020E94F002FF91EF910D
:100E2000BF91AF919F918F917F916F915F914F9102
:100E30003F912F910F900FBE0F901F901895CF9359
:100E4000DF93282F30E0F901E255FF4F8491F9013B
:100E5000E656FF4FD491F901EA57FF4FC491CC23D6
:100E600091F081110E94AC03EC2FF0E0EE0FFF1F18
:100E7000E458FF4FA591B491EC91ED2381E090E00F
:100E800021F480E002C080E090E0DF91CF910895EE
:100E90001F93CF93DF93282F30E0F901E255FF4FE6
:100EA0008491F901E656FF4FD491F901EA57FF4FBB
:100EB000C491CC23C1F0162F81110E94AC03EC2FFA
:100EC000F0E0EE0FFF1FEE58FF4FA591B4919FB7D2
:100ED000F894111104C08C91D095D82302C0EC91E4
:100EE000DE2BDC939FBFDF91CF911F910895CF93AD
:100EF000DF9390E0FC01E656FF4F2491FC01EA5796
:100F0000FF4F8491882361F190E0880F991FFC01C5
:100F1000E859FF4FC591D491FC01EE58FF4FA591C0
:100F2000B491611109C09FB7F894888120958223FC
:100F30008883EC912E230BC0623061F49FB7F89444
:100F40008881322F309583238883EC912E2B2C932C
:100F50009FBF06C08FB7F894E8812E2B28838FBFE0
:100F6000DF91CF9108951F93CF93DF93182FEB015B
:100F700061E00E947707209711F460E004C0CF3F42
:100F8000D10539F461E0812FDF91CF911F910C944D
:100F90004807E12FF0E0E255FF4FE491E330F9F02C
:100FA00048F4E130B9F0E230A1F584B5806284BD47
:100FB000C8BD34C0E730E9F0E83019F1E43049F554
:100FC00080918000806280938000D0938B00C093DA
:100FD0008A0024C084B5806884BDC7BD1FC08091CD
:100FE0008000806880938000D0938900C09388003F
:100FF00015C08091B00080688093B000C093B300AA
:101000000DC08091B00080628093B000C093B400A6
:1010100005C0C038D1050CF0B5CFAFCFDF91CF916F
:101020001F9108953FB7F8948091F3019091F401D6
:10103000A091F501B091F60126B5A89B05C02F3F00
:1010400019F00196A11DB11D3FBFBA2FA92F982FEE
:101050008827820F911DA11DB11DBC01CD0142E069
:10106000660F771F881F991F4A95D1F708952FB7EC
:10107000F8946091EF017091F0018091F1019091ED
:10108000F2012FBF0895789484B5826084BD84B541
:10109000816084BD85B5826085BD85B5816085BD73
:1010A00080916E00816080936E001092810080912B
:1010B00081008260809381008091810081608093B3
:1010C0008100809180008160809380008091B100D8
:1010D00084608093B1008091B00081608093B00003
:1010E00080917A00846080937A0080917A00826097
:1010F00080937A0080917A00816080937A00809159
:101100007A00806880937A001092C10020E042E06B
:1011100060E18AE192E00E9485028AE192E00E9409
:10112000C20161E08AE192E00E94080160E082E091
:101130000E94770760E083E00E94770760E089E023
:101140000E94770760E088E00E94770761E086E010
:101150000E94770761E085E00E94770761E084E004
:101160000E94770761E081E00E94770761E087E0F5
:101170000E9477078CE890E0909301018093000132
:1011800080916900836080936900E89A80E4F82E7A
:1011900000E010E08091DC01823009F4D9C030F425
:1011A000882369F0813009F4A0C0BDC1843009F4FE
:1011B0003CC108F400C1853009F47BC1B4C10E9470
:1011C00037088090CC019090CD01A090CE01B090D6
:1011D000CF01DC01CB0188199909AA09BB09883C18
:1011E0009105A105B10508F49EC18AE192E00E9433
:1011F000C20160E080E00E94FA048CE391E00E946A
:10120000D50389E491E00E94D50320E030E048EC6A
:1012100052E460910A0170910B0180910C01909150
:101220000D010E94960F20E030E040E85FE30E944D
:10123000F01060E087FD02C085E001C084E00E94FC
:10124000FA0460910A0170910B0180910C01909158
:101250000D0141E00E94280461E080E00E94FA0450
:101260008DE491E00E94D5038091DE01811104C0DC
:101270008091DD01882321F081E08093190202C072
:101280001092190280911902882319F08AE591E0E1
:1012900002C08DE591E00E94D50320E030E048ECEB
:1012A00052E46091E1017091E2018091E30190913B
:1012B000E4010E94960F20E030E040E85FE30E94E6
:1012C000F01061E087FD02C085E001C084E00E946B
:1012D000FA046091E1017091E2018091E301909143
:1012E000E40141E00E94280414C10E943708809064
:1012F000CC019090CD01A090CE01B090CF01DC0147
:10130000CB0188199909AA09BB09883C9105A10557
:10131000B10508F408C18AE192E00E94C20160E0D0
:1013200080E00E94FA0481E691E00E94D50361E02A
:1013300080E00E94FA048FE691E00E94D50360915C
:101340001402709115028091160290911702C9CF74
:101350000E9437088090CC019090CD01A090CE01E2
:10136000B090CF01DC01CB0188199909AA09BB090A
:10137000883C9105A105B10508F4D5C08AE192E049
:101380000E94C20160E080E00E94FA0484E791E0DC
:101390000E94D50361E080E00E94FA0483E891E0B6
:1013A0000E94D50360911002709111028091120287
:1013B0009091130296CF0E9437088090CC019090B4
:1013C000CD01A090CE01B090CF01DC01CB018819F6
:1013D0009909AA09BB09883C9105A105B10508F442
:1013E000A2C08AE192E00E94C20160E082E00E9415
:1013F000FA0488E891E00E94D50361E080E00E9451
:10140000FA0484E991E00E94D5038091DE018823EB
:1014100009F44CC08AE591E00E94D50361E08BE0BD
:101420000E94FA046091050138C00E94370880903C
:10143000CC019090CD01A090CE01B090CF01DC0105
:10144000CB0188199909AA09BB09883C9105A10516
:10145000B10508F468C08AE192E00E94C20160E030
:1014600082E00E94FA0488E891E00E94D50361E0DE
:1014700080E00E94FA048DE991E00E94D5038091FA
:10148000DD01882399F08AE591E00E94D50361E0AF
:101490008BE00E94FA046091040170E080E090E02B
:1014A00041E00E94E7038BE991E031C08DE591E0D6
:1014B0002EC00E9437088090CC019090CD01A09062
:1014C000CE01B090CF01DC01CB0188199909AA099E
:1014D000BB09883C9105A105B10528F18AE192E09C
:1014E0000E94C20160E082E00E94FA0483EA91E077
:1014F0000E94D50361E084E00E94FA048091180202
:10150000882319F081EB91E002C088EB91E00E9402
:10151000D5030E9437086093CC017093CD0180936E
:10152000CE019093CF01C2E3D0E0F0927C00809195
:101530007A00806480937A0080917A0086FDFCCFE7
:10154000609178008091790070E0782B072E000C74
:10155000880B990B0E94401020E030E040EA50E4F4
:101560000E94F51020E030EC4FE754E40E94960F03
:101570002AE037ED43E25CE30E94960F2091E101FF
:101580003091E2014091E3015091E4010E94250F66
:101590006093E1017093E2018093E3019093E40191
:1015A000219719F620E030E040E552E40E94960FC2
:1015B0004B015C016093E1017093E2018093E301D0
:1015C0009093E4018091E0018111DEC08091DF0100
:1015D0008111DAC020910A0130910B0140910C0178
:1015E00050910D01C501B4010E94910F87FF65C0A4
:1015F00081E08093DE011092DD0160E084E00E94D2
:10160000480761E081E00E944807A50194016091CC
:101610000A0170910B0180910C0190910D010E94C3
:10162000240F20910601309107014091080150914B
:1016300009010E94F5104B015C0120E030E042E816
:1016400052E40E94F01018164CF08092D001909253
:10165000D101A092D201B092D3010CC080E090E001
:10166000A2E8B2E48093D0019093D101A093D2017B
:10167000B093D30120E030E0A9016091D0017091D6
:10168000D1018091D2019091D3010E94910F18163F
:1016900044F01092D0011092D1011092D201109218
:1016A000D3016091D0017091D1018091D2019091CC
:1016B000D3010E94081086E065C01092DE0181E02F
:1016C0008093DD0161E084E00E94480760E081E0F2
:1016D0000E94480720910A0130910B0140910C01B2
:1016E00050910D01C501B4010E94240F20E030E0AB
:1016F00040E751E40E94F5104B015C0120E030E02E
:101700004FE753E40E94F01018164CF08092D40179
:101710009092D501A092D601B092D7010CC080E082
:1017200090E0AFE7B3E48093D4019093D501A09308
:10173000D601B093D70120E030E04CE852E460914C
:10174000D4017091D5018091D6019091D7010E946A
:10175000910F181664F080E090E0ACE8B2E480935A
:10176000D4019093D501A093D601B093D701609195
:10177000D4017091D5018091D6019091D7010E943A
:10178000081085E00E94B3078091DC01833009F4E2
:1017900024C130F4813059F0823009F493C08DC2F5
:1017A000843009F4A7C1853009F431C286C289E0CA
:1017B0000E941F07892BA1F10E9437084B015C0191
:1017C0006093D8017093D9018093DA019093DB0183
:1017D00089E00E941F070197D9F30E943708DC01B6
:1017E000CB0188199909AA09BB0984369105A1057D
:1017F000B105B0F020E030E040E05FE3609114021A
:101800007091150280911602909117020E94250F87
:10181000609314027093150280931602909317023E
:1018200088E00E941F07892BA1F10E9437084B0115
:101830005C016093D8017093D9018093DA01909391
:10184000DB0188E00E941F070197D9F30E94370847
:10185000DC01CB0188199909AA09BB0984369105D5
:10186000A105B105B0F020E030E040E05FE3609119
:1018700014027091150280911602909117020E9435
:10188000240F6093140270931502809316029093B4
:10189000170283E00E941F07892B09F40EC21092E1
:1018A000DC018091140290911502A0911602B09172
:1018B000170280930A0190930B01A0930C01B0933F
:1018C0000D01FBC189E00E941F07892BA1F10E9435
:1018D00037084B015C016093D8017093D901809364
:1018E000DA019093DB0189E00E941F070197D9F389
:1018F0000E943708DC01CB0188199909AA09BB09A4
:1019000084369105A105B105B0F020E030E040E05B
:101910005FE3609110027091110280911202909128
:1019200013020E94250F609310027093110280939E
:1019300012029093130288E00E941F07892BA1F1E5
:101940000E9437084B015C016093D8017093D90164
:101950008093DA019093DB0188E00E941F070197D2
:10196000D9F30E943708DC01CB0188199909AA092B
:10197000BB0984369105A105B105B0F020E030E047
:1019800040E05FE3609110027091110280911202B9
:10199000909113020E94240F609310027093110221
:1019A000809312029093130283E00E941F07892BF9
:1019B00009F483C11092DC01809110029091110210
:1019C000A0911202B0911302809306019093070137
:1019D000A0930801B093090170C11092E00181E069
:1019E0008093DF018091DE01811129C089E00E948E
:1019F0001F07892B09F461C10E9437084B015C0164
:101A00006093D8017093D9018093DA019093DB0140
:101A100089E00E941F070197D9F30E943708DC0173
:101A2000CB0188199909AA09BB0984369105A1053A
:101A3000B10508F442C181E08093DE013EC189E036
:101A40000E941F07892B19F10E9437084B015C0186
:101A50006093D8017093D9018093DA019093DB01F0
:101A600089E00E941F070197D9F30E943708DC0123
:101A7000CB0188199909AA09BB0984369105A105EA
:101A8000B10528F080910501865F8093050188E00B
:101A90000E941F07892B09F410C10E9437084B01CF
:101AA0005C016093D8017093D9018093DA0190931F
:101AB000DB0188E00E941F070197D9F30E943708D5
:101AC000DC01CB0188199909AA09BB098436910563
:101AD000A105B10508F4F1C0209105012A50209319
:101AE0000501883E9340A105B10508F4E6C01092B7
:101AF000DE01E3C081E08093E0011092DF0180917C
:101B0000DD01811129C089E00E941F07892B09F49A
:101B1000D4C00E9437084B015C016093D8017093D8
:101B2000D9018093DA019093DB0189E00E941F07BD
:101B30000197D9F30E943708DC01CB018819990974
:101B4000AA09BB0984369105A105B10508F4B5C001
:101B500081E08093DD01B1C089E00E941F07892BDD
:101B600019F10E9437084B015C016093D801709312
:101B7000D9018093DA019093DB0189E00E941F076D
:101B80000197D9F30E943708DC01CB018819990924
:101B9000AA09BB0984369105A105B10528F08091F9
:101BA0000401865F8093040188E00E941F07892B4F
:101BB00009F483C00E9437084B015C016093D8018F
:101BC0007093D9018093DA019093DB0188E00E9441
:101BD0001F070197D9F30E943708DC01CB01881950
:101BE0009909AA09BB0984369105A105B10508F434
:101BF00064C0209104012A5020930401883E934040
:101C0000A105B10508F459C01092DD0156C089E064
:101C10000E941F07892B09F10E9437084B015C01C4
:101C20006093D8017093D9018093DA019093DB011E
:101C300089E00E941F070197D9F30E943708DC0151
:101C4000CB0188199909AA09BB0984369105A10518
:101C5000B10518F081E08093180288E00E941F0708
:101C6000892B01F10E9437084B015C016093D80178
:101C70007093D9018093DA019093DB0188E00E9490
:101C80001F070197D9F30E943708DC01CB0188199F
:101C90009909AA09BB0984369105A105B10510F07F
:101CA0001092180283E00E941F07892B31F01092D6
:101CB000DC01809118028093190280911902811130
:101CC00005C061E087E00E94480734C00E943708E1
:101CD0004B015C016093EA017093EB018093EC018E
:101CE0009093ED018091E6019091E701A091E801C8
:101CF000B091E901A5019401281B390B4A0B5B0B3C
:101D0000DA01C901813D9740A105B10598F0C09164
:101D1000E5016C2F87E00E94480781E0C11180E057
:101D20008093E5018092E6019092E701A092E8019C
:101D3000B092E9010115110509F42CCA0E940000B6
:101D400029CAE4E0F2E01382128288EE93E0A0E078
:101D5000B0E084839583A683B7838AE191E0918381
:101D60008083809119028093180280910A019091DA
:101D70000B01A0910C01B0910D018093140290937E
:101D80001502A0931602B09317028091060190915C
:101D90000701A0910801B09109018093100290936E
:101DA0001102A0931202B0931302EAE1F2E013824F
:101DB00012828CE291E091838083108A8FEF878773
:101DC0001686118A87E28387148615861286118605
:101DD00084E0828B82E0838B81E0848B80E1858B41
:101DE00080E2868B80E4878B80E8808F40E050E043
:101DF00063E0CF010C94C200A1E21A2EAA1BBB1B08
:101E0000FD010DC0AA1FBB1FEE1FFF1FA217B307C6
:101E1000E407F50720F0A21BB30BE40BF50B661FDC
:101E2000771F881F991F1A9469F7609570958095A0
:101E300090959B01AC01BD01CF010895EE0FFF1FEE
:101E40000590F491E02D09945058BB27AA270E94D1
:101E50003C0F0C94B6100E94A81038F00E94AF10EE
:101E600020F039F49F3F19F426F40C94A5100EF4D9
:101E7000E095E7FB0C949F10E92F0E94C71058F3E0
:101E8000BA17620773078407950720F079F4A6F55F
:101E90000C94E9100EF4E0950B2EBA2FA02D0B0137
:101EA000B90190010C01CA01A0011124FF27591B9F
:101EB00099F0593F50F4503E68F11A16F040A22FA5
:101EC000232F342F4427585FF3CF46953795279516
:101ED000A795F0405395C9F77EF41F16BA0B620B15
:101EE000730B840BBAF09150A1F0FF0FBB1F661F5C
:101EF000771F881FC2F70EC0BA0F621F731F841F9F
:101F000048F4879577956795B795F7959E3F08F0C4
:101F1000B0CF9395880F08F09927EE0F9795879586
:101F200008950E947B1008F481E008950E94AA0F92
:101F30000C94B6100E94AF1058F00E94A81040F008
:101F400029F45F3F29F00C949F1051110C94EA1072
:101F50000C94A5100E94C71068F39923B1F3552380
:101F600091F3951B550BBB27AA27621773078407AC
:101F700038F09F5F5F4F220F331F441FAA1FA9F342
:101F800035D00E2E3AF0E0E832D091505040E69530
:101F9000001CCAF72BD0FE2F29D0660F771F881F91
:101FA000BB1F261737074807AB07B0E809F0BB0B84
:101FB000802DBF01FF2793585F4F3AF09E3F510598
:101FC00078F00C949F100C94EA105F3FE4F3983E75
:101FD000D4F3869577956795B795F7959F5FC9F781
:101FE000880F911D9695879597F90895E1E0660F02
:101FF000771F881FBB1F621773078407BA0720F07B
:10200000621B730B840BBA0BEE1F88F7E0950895E3
:102010000E940F106894B1110C94EA1008950E9468
:10202000CF1088F09F5798F0B92F9927B751B0F08B
:10203000E1F0660F771F881F991F1AF0BA95C9F74C
:1020400014C0B13091F00E94E910B1E008950C94F1
:10205000E910672F782F8827B85F39F0B93FCCF3A4
:10206000869577956795B395D9F73EF490958095C9
:10207000709561957F4F8F4F9F4F0895E89409C0E9
:1020800097FB3EF490958095709561957F4F8F4FAB
:102090009F4F9923A9F0F92F96E9BB279395F695C1
:1020A000879577956795B795F111F8CFFAF4BB0F3F
:1020B00011F460FF1BC06F5F7F4F8F4F9F4F16C0A3
:1020C000882311F096E911C0772321F09EE8872F2D
:1020D000762F05C0662371F096E8862F70E060E0E9
:1020E0002AF09A95660F771F881FDAF7880F969562
:1020F000879597F90895990F0008550FAA0BE0E806
:10210000FEEF16161706E807F907C0F012161306B9
:10211000E407F50798F0621B730B840B950B39F4F9
:102120000A2661F0232B242B252B21F408950A265F
:1021300009F4A140A6958FEF811D811D089597F99F
:102140009F6780E870E060E008959FEF80EC08955D
:1021500000240A9416161706180609060895002486
:102160000A9412161306140605060895092E039400
:10217000000C11F4882352F0BB0F40F4BF2B11F474
:1021800060FF04C06F5F7F4F8F4F9F4F089557FDD3
:102190009058440F551F59F05F3F71F04795880FD5
:1021A00097FB991F61F09F3F79F08795089512166C
:1021B00013061406551FF2CF4695F1DF08C0161618
:1021C00017061806991FF1CF8695710561050894C9
:1021D0000895E894BB2766277727CB0197F90895E0
:1021E0000E947B1008F48FEF08950E9408110C9450
:1021F000B6100E94A81038F00E94AF1020F095236E
:1022000011F00C949F100C94A51011240C94EA105A
:102210000E94C71070F3959FC1F3950F50E0551FB2
:10222000629FF001729FBB27F00DB11D639FAA272B
:10223000F00DB11DAA1F649F6627B00DA11D661F7A
:10224000829F2227B00DA11D621F739FB00DA11D9B
:10225000621F839FA00D611D221F749F3327A00D55
:10226000611D231F849F600D211D822F762F6A2FF1
:1022700011249F5750409AF0F1F088234AF0EE0F56
:10228000FF1FBB1F661F771F881F91505040A9F783
:102290009E3F510580F00C949F100C94EA105F3F14
:1022A000E4F3983ED4F3869577956795B795F795BF
:1022B000E7959F5FC1F7FE2B880F911D9695879537
:1022C00097F908950E947B10880B990B089581E07F
:0C22D00090E0F8940C946C11F894FFCF8F
:1022DC00970097002314000020410000A04100400B
:1022EC00145400401050000000007D035003E40023
:1022FC00240348033403250300000000D600980093
:10230C00E400E3008502C2000801E90053503A20C2
:10231C0020202020432020200046616E0050563A99
:10232C00202020202043202020004F4E004F4646E6
:10233C00004E65772053657420506F696E7400539E
:10234C00503A20004E65772050726F702E204761F6
:10235C00696E004B703A20004D616E75616C204DBA
:10236C006F646500486561743A2000250046616E13
:10237C003A200044726976657220537461747573E7
:10238C0000456E61626C650044697361626C650046
:0C239C006E616E00696E66006F76660070
:00000001FF
